:1000000000100020810200007D0200007D0200003F
:100010007D0200007D0200007D0200007D020000E4
:100020007D0200007D0200007D0200007D020000D4
:100030007D0200007D0200007D0200007D020000C4
:100040007D0200007D0200007D0200007D020000B4
:100050007D0200007D0200007D0200007D020000A4
:100060007D0200007D0200007D0200007D02000094
:100070007D0200007D0200007D020000050F0000EF
:100080003D0F00007D020000810F00007D02000096
:100090007D0200007D0200007D0200007D02000064
:1000A0007D0200007D0200007D0200007D02000054
:1000B0007D0200007D0200007D0200007D02000044
:1000C0007D0200007D0200007D0200007D02000034
:1000D0007D0200007D0200007D02000010B5054C8D
:1000E000237833B9044B13B10448AFF300800123E4
:1000F000237010BD3411002000000000DC1100004E
:1001000008B5034B1BB103490348AFF3008008BD9A
:100110000000000038110020DC110000A3F5803A37
:10012000704700BF174B002B08BF134B9D46FFF7CE
:10013000F5FF00218B460F461348144A121A00F0AF
:100140008DFF0E4B002B00D098470D4B002B00D09D
:1001500098470020002104000D000D48002802D01F
:100160000C48AFF3008000F055FF2000290000F09C
:100170008BFD00F03BFF00BF000008000000000006
:100180000000000000100020341100207411002035
:1001900000000000000000007047000008B50421C6
:1001A000112000F027FB0121064800F0E1F90221AF
:1001B000054800F01FFB0221044800F01BFB002053
:1001C00008BD00BFD0433E0002001E000300200017
:1001D000012213B5174B01A81A64174BD3F8FC4042
:1001E00000F0A6FCB4F1805F12D39DF80430022B1E
:1001F0000ED99DF80520022A01D1042B08D00F4A00
:10020000D2F8C03023F0500343F01003C2F8C030DE
:1002100000F0EAFC00F02CF800F0C2FC00F0D2FC88
:10022000FFF7BCFF00F0ACFC02B0BDE8104000F0EE
:1002300013B800BF00000C400081E00F00800C40AC
:10024000704700F006B870477047704770477047B6
:1002500070470F207047000008B50121034800F0E7
:1002600087F9BDE80840FFF797BF00BF00D2040040
:100270000121014800F07CB900D20400FEE7000033
:1002800008B500F0B9F8124B12498B4212D3002086
:10029000114B12498B4218D3FFF744FF186850F8EE
:1002A0002240586840F82240013298688242F5D3D3
:1002B0000C33EAE70022F8E71C6844F82200013218
:1002C0005C68A242F8D30833E4E70022F8E700BFF5
:1002D000E4110000F0110000F0110000F011000026
:1002E00000487047006CDC02254AD36A03F470535F
:1002F000B3F5805F3AD0B3F5005F04D0B3F5006F7B
:100300000BD1204B00E0204B1B681D4A1068C0F346
:1003100082300130B3FBF0F07047D36803F4E06340
:10032000B3F5407F25D008D8B3F5807F0ED0B3F564
:10033000007F20D0A3B10023E7E7B3F5806F1CD086
:10034000B3F5A06F114B18BF0023DEE7104B114827
:10035000D3F8FC20104BB2F1985F38BF0346D4E7C6
:100360000B4B0E48D3F8FC200D4BF4E74FF4004341
:10037000CBE70C4BC9E70C4BC7E70C4BC5E700BFFD
:1003800000800C400410002008100020003FAB014A
:100390000081E00FC0CF6A0040B5640040420F000A
:1003A000804F1200809FD500C0D8A700406F400149
:1003B00008B5FFF799FF044B5B6803F00F03D840C3
:1003C000024B186008BD00BF00800C4000100020E8
:1003D000014B1868704700BF04100020044B1860E0
:1003E000044BDB6A1B0501D5FFF7E2BF704700BF76
:1003F0000410002000800C40014A024B9A607047B4
:100400000000000000ED00E0FEE70000034B5A6D25
:10041000D20702D41A6D1042FCD1704700800C4004
:1004200008B5154BD3F8FC30C3F307434A2B05D06E
:10043000792B03D0482B18D1104815E010491148EA
:10044000D1F8E030D1F8E820D1F8EC101B0203F429
:100450007C53C1F3031102F0F0020B431343074A2C
:10046000B3F5017F38BF104608BD074841F2D231CD
:10047000FFF7CAFF0020F7E70081E00F0048E8011E
:1004800000FF0FE000366E018810000010B5044632
:10049000FFF7C6FFA04210D2FFF7C2FFB4EB400F38
:1004A0000ED90222012307498B6707494B6823F4C1
:1004B000807343EA02234B6010BD00221346F2E72B
:1004C0000122FBE70000904300800C40134B5B6867
:1004D00013F0060F03F00702114B01D0042A18D1C4
:1004E000984212D800230F4A0F4902448A420AD286
:1004F000002B14BF0323012308494A6822F0070296
:1005000013434B6070475B00F6E70423F4E70523D1
:10051000F2E79842FBD80123E5E700BF00000C405A
:100520000048E801FFDB0BFF0024F40070B541F642
:100530007136064CE56BE663FFF7D2FEADB2FFF70E
:10054000C5FFB5421CBF0023E36370BD00000C4033
:1005500070B541F67136054CE56BE663ADB2FFF759
:10056000B5FFB5421CBF0023E36370BD00000C4023
:10057000C0F30323013B70B504460E46092B23D874
:10058000DFE803F029051522222C1C22221F00205F
:10059000144DC4F3043408B1FFF738FF05F14245A8
:1005A00005F5801504EBC504A400266070BDFFF7B7
:1005B000FFFEFFF76BFF0C4D0020EAE710200B4D0C
:1005C000E7E700200A4DE4E741F66A31BDE87040F4
:1005D0000848FFF719BF0020074DDAE70120074D53
:1005E000D7E700BF44800C4040800C4060800C4046
:1005F00078800C408810000008800C4058800C4027
:1006000000F00F00013808B506284CD8DFE800F0EC
:100610000414254B4B333B00294BDB6A03F4705326
:10062000B3F5805F4AD0B3F5005F45D0B3F5006FF6
:1006300014BF0520042008BD214A936A03F0030378
:10064000013B022B02D81F4AD05CF4E7936A13F4F3
:10065000803F0CBF01200A20EDE7194A936A03F09E
:100660000C03082B28D00C2B24D0042B26D0936A03
:1006700013F4801FEDE7124B1B6813F0805F0CBF73
:1006800007200920D7E70E4BDB6A03F46033B3F58C
:10069000803F11D0B3F5003F10D0B3F5004F14BF29
:1006A00001200920C7E7084842F2BB01FFF7ACFE72
:1006B0000020C0E70620BEE70220BCE70320BAE71F
:1006C00000800C40D11000008810000010B50446D6
:1006D0001120FFF795FF042804D142F2A5610D48CF
:1006E000FFF792FE08230C4A13621368E17823F4A3
:1006F000D16323F007030B43617843EA4123217858
:1007000043EA8103A178002914BF802100210B4313
:10071000136010BD8810000000800C4070B50546C5
:100720001120FFF76DFF022804D142F263711548D2
:10073000FFF76AFE4FF40073134E33622B78AC78E8
:1007400013F0020F14BF4FF4005300236A78E40241
:1007500044EA82441C4300F02DF933685C4024F0E5
:100760007F4424F4730424F4474424F0FF045C40E1
:10077000346000F023F92B78044A03F00103C2F837
:10078000A03470BD8810000000800C4000008C4335
:10079000014B1880704700BF0C100020042810B4D3
:1007A00006D80E4B51B90E4A32F810201A6212E0E8
:1007B00042F60A010B4810BCFFF726BE0A490B4C53
:1007C000095C34F8100018622AB1094B0B449B00F5
:1007D0001A68002AFCD010BC704700BF00800C4093
:1007E000E410000088100000D4100000DA100000AF
:1007F0006001E41010B500F00F04631E062B00F238
:10080000CD80DFE803F0044E4ECBCB91A30002393C
:10081000082940D8DFE801F042051A313F3F3F3F49
:1008200038000120032401221146FFF7B7FFFFF72C
:100830007DFE5C4B5C62FFF7BBFD0446FFF726FEC6
:100840002046BDE810400021FFF782BEFFF7E8FD1B
:100850000130FFF71BFEFFF7BBFD534B514A984297
:100860004FF002001368044696BF23F0600343F084
:10087000600343F020031360D5E7FFF7D1FD01309B
:10088000FFF704FE0320CEE742F27C11BDE81040E2
:100890004648FFF7B9BD42F28111F7E70020042472
:1008A000C1E70139092930D8DFE801F032141C2FE3
:1008B0002F242F2F2F05012300213A48022C826A72
:1008C00029D122F4803222F003020A4342EA034390
:1008D000836210BD012200201146FFF75FFF002355
:1008E0000221EAE7012211461046FFF757FF0023D5
:1008F0000121E2E7FFF75CFDFFF7C8FD01222C4B69
:100900000321C3F810280023D7E742F22A21BDE7CC
:1009100000231946D1E71B0522F4801243EA810324
:1009200022F00C021343D3E7072904D0092908D089
:1009300042F28521AAE71B4A136823F08053136013
:10094000C7E7184A136843F08053F8E703290FD02C
:10095000092919D002291ED1012200201146FFF7D2
:100960001DFF40220F4B5A62DA6AD003FCD5B0E774
:10097000012211461046FFF711FF6022094B5A620F
:10098000DA6A9103FCD5A4E72022064B5A62DA6AA0
:100990001204FCD59DE742F2C42177E742F2BA3156
:1009A00074E700BF00800C400048E8018810000098
:1009B00000009043EFF3108072B6704700B962B642
:1009C0007047000010B504798378094923430478FF
:1009D000CA6A43EA0443C478407822F4803243EA86
:1009E000440322F01F0243EA00131343CB6210BDFD
:1009F00000600C40042838B504460D4616D9052879
:100A000004D141F6FF73EB40DB0704D440F22D41E3
:100A10000848FFF7F9FC24200121444304F18044F5
:100A200001FA05F504F5C044256138BD4FF6FF73A2
:100A3000E9E700BFEE100000042838B504460D4673
:100A400016D9052804D141F6FF73EB40DB0704D427
:100A500040F2FE310848FFF7D7FC2420012144432F
:100A600004F1804401FA05F504F5C044656138BD20
:100A70004FF6FF73E9E700BFEE10000070B50546C2
:100A800014460E46FFF796FF29684C4034404C4010
:100A90002C60BDE87040FFF791BF00000428F8B556
:100AA00005460C4616461F4628D9052804D141F6AE
:100AB000FF73E340DB0704D44FF4B0711948FFF72C
:100AC000A3FC26B121462846DFB1FFF793FF24237C
:100AD000072C4FF00F0105FB03F315D8A00006FA11
:100AE00000F2814010481844FFF7C8FFC6B92146FC
:100AF00028468FB1BDE8F840FFF77CBF4FF6FF7383
:100B0000D7E7FFF799FFE2E7A4F10800800006FAB3
:100B100000F281400548E6E7BDE8F840FFF78CBFEA
:100B2000F8BD00BF391100000460004008600040BB
:100B300010B5044618B957210F48FFF765FC0F4A56
:100B4000D2F8E430D2F8E0109B0003F03C03C1F38C
:100B500081110B43A370D2F8E03003F03F036370C0
:100B6000D2F8E830D2F8EC2003F0F003C2F303121D
:100B70001343237010BD00BF8311000000FF0FE07E
:100B800007B5064B18681B79009068468DF804304D
:100B9000FFF718FF002003B05DF804FBCF11000041
:100BA00007B5064B186801900548FFF717FC01A828
:100BB000FFF78CFD002003B05DF804FBD4110000AA
:100BC000006CDC0213B50323002401A88DF8053066
:100BD0008DF804408DF80640FFF7A0FD6420FFF774
:100BE000D7FD204602B010BD6FF00402A02110B561
:100BF0000A480B4C12F0800FD3B21BBF03F00F0357
:100C0000043BA3181B1802F101020CBF83F8001368
:100C10001976272AEED1002010BD00BF00ED00E0BC
:100C200000E100E008B5FFF7D3FAFFF709FBFFF793
:100C300008FBFFF708FBBDE80840FFF705BB08B558
:100C4000FFF703FBFFF702FBFFF701FBBDE80840DE
:100C5000FFF7FEBA08B501210848FFF789FC01211A
:100C60000748FFF785FC01210648FFF781FCBDE836
:100C7000084001221146104600F046B80012040058
:100C80000022040000D2040007B5FFF7CBFF0122C9
:100C9000194B01A81A64194BD3F8FC40FFF748FF21
:100CA000B4F1805F12D39DF80430022B0ED99DF869
:100CB0000520022A01D1042B08D0114AD2F8C030F5
:100CC00023F0500343F01003C2F8C030FFF7C2FF17
:100CD0000021084600F0F6F8BB210A4800F070F940
:100CE000BB21084800F06CF9064CFFF7A8FFBB21B8
:100CF000204600F065F9F8E700000C400081E00FA5
:100D000000800C400E10002002282DE9F04106461C
:100D10000C4677D84FF4C061830203F1804303F59A
:100D20004043596101254FF440611D60D9600021A5
:100D3000D964210241F00F0159657AB315222F467B
:100D40000425DA601A6842F480321A6041F6F972BA
:100D5000012E9A6453D0022E00F08480012C21D001
:100D6000022C35D0002C4DD123462A460A210420DE
:100D7000FFF794FE23463A460B210420FFF78EFE30
:100D800023462A460D210420FFF788FE23462A46E3
:100D90000C210420BDE8F041FFF780BE05220427A6
:100DA000DA60D3E700232A4607210420FFF776FE06
:100DB00000233A4606210420FFF770FE0421002399
:100DC0002A460846FFF76AFE00232A460521E0E787
:100DD00000232A460B212046FFF760FE00233A46F7
:100DE0000A212046FFF75AFE00232A460821204602
:100DF000FFF754FE00232A4609212046CAE71CB10A
:100E0000012C18D0BDE8F08123462A462146022055
:100E1000FFF744FE23463A4631460220FFF73EFEE6
:100E200023462A4608213046FFF738FE23462A4645
:100E300007213046AEE700232A4619460320FFF774
:100E40002DFE00233A4621460320FFF727FE03210B
:100E5000002308462A46FFF721FE00232A460221E6
:100E6000032097E7BCB1012CCCD100232A460321F3
:100E70002046FFF713FE00233A4604212046FFF7E1
:100E80000DFE00232A4606212046FFF707FE002319
:100E90002A460521B1E723462A4631463046FFF768
:100EA000FDFD23463A4603213046FFF7F7FD234672
:100EB0002A4605213046FFF7F1FD23462A46042144
:100EC000B7E7000000220A4B18600A4B19600A4B72
:100ED0004FF400411A604FF40062084BDA60084A90
:100EE000C2F880111160DA6C42F00402DA647047D3
:100EF0005C110020641100206011002000C400403B
:100F000000E100E0094B1A6912060DD5D869084ABC
:100F1000084B12681968914206DA07491A6809688D
:100F200088541A6801321A60704700BF00C400403C
:100F300064110020601100205C1100200C4A10B5E3
:100F400013695B0610D50B48016871B10A4B1C6828
:100F5000095D51631A6801321A601A68074B1B68F1
:100F60009A4201D10023036010BD5163FCE700BF2A
:100F700000C40040681100206C1100207011002096
:100F80000B4B10B51A69120610D50A49DC690A68BC
:100F900062B1094B186814541A6801321A601A6851
:100FA000064B1B689A4204BF00230B6010BD00BFB4
:100FB00000C800405011002054110020581100209A
:100FC000002210B5084B8A4203DB1A699206FCD551
:100FD00010BD1C696406FCD520B110F8014B5C63A0
:100FE0000132F0E75863FBE700C4004008B5074B47
:100FF000044613B10021AFF30080054B1868836AE3
:1010000003B19847204600F031F800BF000000000F
:10101000D811000070B500260C4D0D4C641BA410B7
:10102000A64209D100F024F800260A4D0A4C641BA0
:10103000A410A64205D170BD55F8043B984701366F
:10104000EEE755F8043B98470136F2E72C110020F3
:101050002C1100202C1100203011002003460244E6
:10106000934200D1704703F8011BF9E7FEE700BF88
:10107000F8B500BFF8BC08BC9E467047F8B500BF85
:10108000F8BC08BC9E4670472F686F6D652F6B617A
:10109000737065722F53696D706C696369747953ED
:1010A000747564696F2F53444B732F6765636B6F5F
:1010B0005F73646B2F706C6174666F726D2F656DFA
:1010C0006C69622F7372632F656D5F636D752E633C
:1010D00000030206090703010500000140000400A7
:1010E00001001000000280000800020020002F68AC
:1010F0006F6D652F6B61737065722F53696D706CC6
:10110000696369747953747564696F2F53444B73C1
:101110002F6765636B6F5F73646B2F2F706C6174E7
:10112000666F726D2F656D6C69622F696E632F65D6
:101130006D5F6770696F2E68002F686F6D652F6B2C
:1011400061737065722F53696D706C69636974792E
:1011500053747564696F2F53444B732F6765636BCA
:101160006F5F73646B2F706C6174666F726D2F6547
:101170006D6C69622F7372632F656D5F6770696F45
:101180002E63002F686F6D652F6B61737065722F12
:1011900053696D706C696369747953747564696FB0
:1011A0002F53444B732F6765636B6F5F73646B2FB3
:1011B000706C6174666F726D2F656D6C69622F73F0
:1011C00072632F656D5F73797374656D2E630000B4
:0C11D0000000010103030000CC1000200F
:0811DC0040EFFF7F010000005D
:0C11E400F0110000001000204D00000081
:1011F000809FD500006CDC0200800000FFFF686566
:101200006C6C6F20776F726C6461616161616161A8
:1012100061616161616161616161616161616161BE
:1012200061616161616161616161616161616161AE
:10123000616161616161616161616161616161619E
:10124000616161616161616161616161616161618E
:10125000616161616161616161616161616161617E
:10126000616161616161616161616161616161616E
:10127000616161616161616161616161616161615E
:10128000616161616161616161616161616161614E
:10129000616161616161616161616161616161613E
:1012A000616161616161616161616161616161612E
:1012B0006161616161616161000000000000000026
:1012C000000000000000000000000000000000001E
:1012D000000000000000000000000000000000000E
:1012E00000000000000000000000000000000000FE
:1012F00000000000000000000000000000000000EE
:1013000000000000000000000000000000000000DD
:1013100000000000000000000000000001010000CB
:04132000DD000000EC
:040000030000028176
:00000001FF
